S00D000048656172742E7372656323
S31510040000005500202D910410C5910410C7910410B9
S315100400100000000045554C4200000000000000009E
S31510040020000000000000000000000000E18604103B
S3151004003000000000000000005787041063870410B6
S31510040040273A0410174104100000000000000000B5
S31510040050174604107341041087440410D344041043
S315100400600000000000000000000000000000000076
S31510040070000000000B480410734904103F4A041092
S3151004008000000000AB5C0410C18404104B5E041025
S315100400905B5E0410C76004104F630410E36304101E
S315100400A00000000000000000000000000000000036
S315100400B00000000000000000000000000000000026
S315100400C0E022520080180268914203D34368D21882
S315100400D0914202D380680028F5D170471848016808
S315100400E000290ED18021490281600909416000214D
S315100400F0C943C160016104214161124A1160124968
S3151004010001600120704730B407230C0008341C42E8
S3151004011001D1002304E008240D000835641B234094
S31510040120C918D21A8161C260012313434B60282374
S3151004013089184B6002490969C16130BC70470000D7
S31510040140A4250020441E00206859883CF0B587B0C9
S31510040150040007200D000835054205D008250E00B9
S315100401600836AD1B054049190291110008310142A8
S3151004017005D0082115000835491B08401218170028
S315100401800298C018039005460298381AC01A0190AE
S315100401900326334302984360BD4201D301F0ECFABF
S315100401A03879C00701D401F0E7FA0198102801D272
S315100401B001F0E2FAA069874208D1E0680199401873
S315100401C0E060A5610121014369606AE160698742C3
S315100401D009D1A06801994018A06065610121014305
S315100401E0696028505DE178680640012E00D0B9E0B8
S315100401F0072188430590C00820283CD2B96800918D
S31510040200FE680490B74201D101F0B6FA009887420D
S3151004021001D101F0B1FA7868072188430499C9001D
S31510040220884201D001F0A8FA0498C0002018009959
S3151004023002002832914207D02269914200D289E005
S31510040240C968B94200D085E000998E4206D120686B
S315100402500121049A9140884320607DE0283086422B
S3151004026005D02069864275D3B068B84272D1CE6083
S315100402700098B06070E0B8690090FE68BE420CD079
S31510040280B8682169884225D3C168B94222D1B168B8
S31510040290B9421FD1C660B0601EE03800143006683B
S315100402A0002E07D1380010300668002E14D001E055
S315100402B008000668310014310A68002AF8D13100A2
S315100402C010310A68002AF3D12169884202D3002129
S315100402D0016001E001F050FA009800283CD0F8695A
S315100402E08000201898214900401801688F4209D1CE
S315100402F00660002E14D160680121FA699140884382
S31510040300606029E000982169884207D30069B842E1
S31510040310009801D1066103E0466101E001F02CFA70
S31510040320002E19D02069864214D30099B161396917
S31510040330002906D0814202D331618E6101E001F0B9
S315100403401BFA7869002807D02169884202D37061A4
S31510040350866101E001F010FA05983F180198059995
S315100403604018019078680121884378600198014308
S315100403706960019828500198C008202822D200905C
S31510040380C000271828373E000198102801D201F022
S31510040390F3F9206800990200CA40D10705D4012157
S315100403A0009A91400143216007E0B86821698842A8
S315100403B001D3060001E001F0DFF9BD60F560AE601F
S315100403C0EF606EE00198000A01D1002225E0802139
S315100403D04902884201D31F221FE0FF21C943411855
S315100403E0090C082211408840304A8218120C042342
S315100403F01A4090402E4BC3181B0C022633400E266F
S31510040400711A891AC91A9840C00B08184100019A22
S31510040410C01DC240D007C00F0A189000201898219A
S3151004042049004118EA6100206861286163681E006A
S31510040430D640F60705D401209040184360600D603D
S315100404401BE009681F2A019B05D019265208B21A07
S31510040450934000E011004A680726B243019EB24257
S3151004046010D0DA0F92008E1810365B003268002A0C
S31510040470F0D12069864212D33560A961ED600398E4
S31510040480A8600EE08A682369994208D39A4206D373
S31510040490D560039B8B60AA60E960A86101E001F056
S315100404A06BF90298083007B0F0BD000000F0FFFFAA
S315100404B000C0FFFFF2B586B004008F48006800281C
S315100404C001D1FFF70BFE8C488168069840182F302F
S315100404D0491E88430699814200D3DCE1D82149009C
S315100404E061188968002909D0D8225200A258101818
S315100404F0824200D3CFE1814200D2CCE101F050F91F
S31510040500002800D1C7E1009007680021C94388423A
S3151004051000D1C0E1D82040002058C019D821490084
S31510040520605061184968814200D20100D820400009
S3151004053020184160A069002839D12069002802D00A
S315100405400099814201D2009820610098D82149006F
S3151004055061180861D8204000201847610026D82069
S3151004056040002018C6616448006860620020C043D9
S31510040570206220002830C060014681600831416144
S315100405800161B61C1030202EF5D3C448844203D121
S31510040590283F3A00009926E0201F00680721884367
S315100405A0211808390098C019421A283A1BE0E0208D
S315100405B04000201800E08068002818D000990268CE
S315100405C04368D2189142F6D1017B09070FD4A16969
S315100405D0026891420BD3D218914208D2D9194160BC
S315100405E0E068C219A1692000FFF78DFD3FE100986C
S315100405F02169884200D22061E02040002018009929
S31510040600C91900E08068002810D002688A42F9D11E
S31510040610017B09070AD4009901604168C919416030
S31510040620069B00992000FFF791FD35E1A069039020
S31510040630054629002000FFF743FD016840680818A5
S31510040640059027380026410701D1002003E0082130
S31510040650081A4007400F059908182F382900103139
S31510040660884201D2019500E0019001981830029059
S3151004067004963800283800990831490701D1002119
S3151004068005E00821009A0832891A4907490F401AC9
S31510040690009A5118A161E060012202434A6028229F
S315100406A00818426014480069E06101980830400750
S315100406B001D001F061F81B200199486001980830B7
S315100406C0E02149006118102201F094F80098D8210D
S315100406D0490061180861D820400020184761D820C5
S315100406E040002018C66101980830D82149006118C5
S315100406F08861059805E000BFA42500200299091D0C
S3151004070002910721029A51600499491C0491029995
S3151004071008318142F2D30498022801DA01F02CF848
S315100407200198A84200D1A2E0411B426801239A43D2
S31510040730426001220A436A600160C808202821D257
S315100407400090C000271828373E00102901D201F066
S3151004075013F8206800990200CA40D10705D4012174
S31510040760009A91400143216007E0B86821698842E4
S3151004077001D3060001E000F0FFFFBD60F560AE6036
S31510040780EF6074E0080A01D1002228E01A049042AE
S3151004079001D31F2223E0FF22D2438218120C08230E
S315100407A01A40009290403E4A8218120C04231A40B2
S315100407B090403C4BC3181B0C02273B4001930E235D
S315100407C0009FDB1B9A1A019BD21A9840C00B101873
S315100407D04200C01D0B00C340D807C00F121890006A
S315100407E0201898235B00C0180090EA616E612E6190
S315100407F060680300D340DB0707D40121914001430D
S3151004080061600098056000981DE0009800681F2A32
S3151004081001D10A0006E0192352089B1A0A009A40CD
S3151004082000E0380043680727BB438B4210D0D30F30
S315100408309B00C318103352001F68002FF1D1216991
S315100408408B4212D31D60A861ED600398A8600EE078
S3151004085081682269904208D3914206D3CD60039AE7
S315100408608260A960E860AE6101E000F085FFE0688F
S31510040870069981420FD2401AE060A169069A8A1835
S31510040880A2610123034353600698032202434A607C
S315100408900800083000E0002007B0F0BD881C0020D6
S315100408A000F0FFFF00C0FFFFF2B584B00400002083
S315100408B0009004984542000A25D0802149028842B6
S315100408C001D31F201FE0FF21C9434118090C082238
S315100408D011408840B34A8218120C04231A409040DF
S315100408E0114BC3181B0C022633400E26711A891A93
S315100408F0C91A9840C00B08184100049AC01DC2407A
S31510040900D007C00F081881006118982252008B581E
S31510040910002B28D01F28049A03D019214608891BB6
S315100409208A40002103E000BF00C0FFFF52005E684A
S315100409300727BE43049FF61BAE4202D2009335002E
S315100409400CD05E69D70FBF00DB191B69002E02D0CD
S315100409509E4200D03100002BE8D10B00002B3FD172
S31510040960009900293ED101210122824050004342C0
S31510040970034362681A4000D178E150421040401E89
S31510040980020B10231A40D040430908263340D8409E
S31510040990860804273E400296F040460802273E4049
S315100409A00196F04046083140D218029BD218019B9A
S315100409B0D2185218C84010188000201898214900DF
S315100409C043580DE003005868072188430499401AD8
S315100409D0A84201D20500009318690028F2D15B6978
S315100409E0002BF0D10098002800D13FE1A0680499AB
S315100409F0401A854200D339E1009E2069864200D20E
S31510040A0032E16818029000984068072188430299D9
S31510040A10884201D000F0B0FE009804994718BE42EF
S31510040A2000D321E1806901900098C66886420DD0F2
S31510040A3080682169884225D3C168009A914221D1E0
S31510040A40B16891421ED1C660B0601DE014300668CC
S31510040A50002E07D1009810300668002E14D001E03D
S31510040A6008000668310014310A68002AF8D13100EA
S31510040A7010310A68002AF3D12169884202D3002171
S31510040A80016001E000F078FE0198002843D0009838
S31510040A90C0698000201898214900401800990268FE
S31510040AA091420AD10660002E16D160680121009A7F
S31510040AB0D2699140884360602DE00198216988428B
S31510040AC008D3006900998842019801D1066103E0B0
S31510040AD0466101E000F050FE002E1CD020698642CB
S31510040AE017D30198B06100980069002807D02169CE
S31510040AF0884202D33061866101E000F03DFE009821
S31510040B004069002807D02169884202D37061866142
S31510040B1001E000F031FE03200121102D0AD2029AC1
S31510040B201043009A50600098029A80184268114344
S31510040B30416096E0049A1043009A506001202843BD
S31510040B4078607D51E808202819D2C200A6182836E4
S31510040B50350022681300C3400B4003D18140114372
S31510040B60216007E0B0682169884201D3050001E0DD
S31510040B7000F002FEB760EF60BD60FE6071E0280A07
S31510040B8001D100222AE00A04904201D31F2225E053
S31510040B90FF22D2438218120C08231A400192904065
S31510040BA0004A01E000F0FFFF8218120C04231A40D9
S31510040BB09040304BC3181B0C0226334002930E236D
S31510040BC0019E9B1B9A1A029BD21A9840C00B1018AE
S31510040BD04200C01D2B00C3400B40D21890002018B1
S31510040BE098235B00C018FA6100237B613B6163683C
S31510040BF01E00D6400E4004D191401943616007602F
S31510040C001CE000681F2A01D1290006E019215208A8
S31510040C108A1A2900914000E01000426807239A437B
S31510040C20AA420FD0CA0F92008318103349001A68CB
S31510040C30002AF1D121698B4211D31F60B861FF607C
S31510040C40BF600EE081682269904208D3914206D3B0
S31510040C50CF608760B960F8600020B86101E000F0E9
S31510040C608BFD0098083002E000F086FD002005B0E8
S31510040C70F0BD000000C0FFFFF2B586B00400616845
S31510040C8048420840401E010B10221140C840420938
S31510040C9008231A40D040830804252B40D840450821
S31510040CA002263540E8408607F60F8918C9184919EF
S31510040CB08919F040081880002018982149004058D6
S31510040CC00700416807229143069A8D1A09E0080025
S31510040CD0416807229143069A891AA94201D20D0046
S31510040CE0070001690029F2D140690028F0D1206972
S31510040CF0874200D2D3E0A818019078680721884368
S31510040D000199884201D000F037FD069838180490EE
S31510040D10874200D3C3E0B8690090FE68BE420CD087
S31510040D20B8682169884225D3C168B94222D1B1680D
S31510040D30B9421FD1C660B0601EE038001430066890
S31510040D40002E07D1380010300668002E14D001E0AA
S31510040D5008000668310014310A68002AF8D13100F7
S31510040D6010310A68002AF3D12169884202D300217E
S31510040D70016001E000F000FD009800283DD0F869FC
S31510040D808000201898214900401801688F4209D123
S31510040D900660002E14D160680121FA6991408843D7
S31510040DA060602AE000982169884207D30069B84236
S31510040DB0009801D1066103E0466101E000F0DCFC15
S31510040DC0002E1AD02069864215D30098B06138696E
S31510040DD0002807D02169884202D33061866101E078
S31510040DE000F0CAFC7869002807D02169884202D32A
S31510040DF07061866101E000F0BFFC0320102D09D25A
S31510040E0001990843786001983818416801220A4309
S31510040E10426041E00699084378600120284304990A
S31510040E20486004984551A0680090C608202E01D346
S31510040E3000F0A2FC009800282BD06069039001965C
S31510040E40F00020182830029006460098102801D287
S31510040E5000F092FC206801990200CA40D10705D41B
S31510040E600121019A91400143216008E002988068AB
S31510040E702169884201D3060001E000F07DFC039845
S31510040E80029988600398F060039886600298039923
S31510040E90C860A560049860613800083002E000F06C
S31510040EA06BFC002007B0F0BDF0B587B0040000F06D
S31510040EB0BBFCBA4DF52C00D325E10B2C01D2102422
S31510040EC002E00B3407208443E00800902868009958
S31510040ED0C840032738424DD0012601228243881880
S31510040EE00090C00028182830029084680098C0002A
S31510040EF003906068072188430399884201D000F063
S31510040F003BFCA06801900298844201D100F034FCA5
S31510040F100198844201D100F02FFC606807218843B0
S31510040F200399884201D000F027FC0298019988425F
S31510040F3006D12968009A01209040814329600FE068
S31510040F4008462969884209D3C068A04206D1019887
S31510040F500299886002980199C86001E000F00CFCBF
S31510040F600398074367600398201841680E43466048
S31510040F70260007E1A968A14200D3D7E0002800D1D2
S31510040F80B7E00126009901228A405100009A904048
S31510040F904A420A43024051421140491E080B10228C
S31510040FA01040C1404A0908231A400092D1408A08C9
S31510040FB004231A400192D1404A0802231A4002928D
S31510040FC0D1404A083240009BC018019BC018029BAE
S31510040FD0C0188018D14040180390C0002818283033
S31510040FE00090806804900398C000029004984068AA
S31510040FF0072188430299884201D000F0BDFB04986A
S315100410008068019004980099884201D100F0B4FBDD
S3151004101004980199884201D100F0AEFB0498406807
S31510041020072188430299884201D000F0A5FB009855
S315100410300199884206D12968039A01209040814378
S31510041040296010E00846296988420AD3C0680499C1
S31510041050884206D101980099886000980199C86061
S3151004106001E000F089FB0298001B039027430498C3
S315100410704760049800190590039830430599486011
S31510041080039805990850A8680090C408202C01D329
S3151004109000F072FB0098002825D06869029001942C
S315100410A0E0002F1828373C000098102801D200F0D1
S315100410B063FB286801990200CA40324003D18E406E
S315100410C006432E6007E0B8682969884201D30400F4
S315100410D001E000F051FB0298B8600298E0600298B3
S315100410E084600298C7600398A86005986861049E96
S315100410F048E06868002836D021002800FFF7BCFDB8
S31510041100060013D045E03F20C043844202D3002496
S31510041110E4430BE00B34072084436868002805D0A9
S3151004112021002800FFF7C0FB060032D1A968A142AE
S3151004113019D30A1B686901260327102A08D3011933
S315100411406961AA6016434E608A502743476008E0D7
S315100411500022AA606A610F43476041184A68164321
S315100411604E6006000EE0E86884420DD2001BE8606B
S31510041170A9690A19AA610123034353600320204372
S3151004118048600E00083604E021002800FFF792F9A3
S31510041190060000F058FB300007B0F0BD881C002094
S315100411A0002800D17047F0B585B00838050000F066
S315100411B03BFB474C2069854200D2D2E26B6803217F
S315100411C003221A40012A00D1CBE2DE08F600AA193E
S315100411D0029201273B4241D12A680B4000D1C2E258
S315100411E0B6185342ED18854200D2BAE263699D429D
S315100411F000D102E1D108202900D380E0A86801902B
S31510041200E868009003910098854201D100F0B4FA81
S315100412100198854201D100F0AFFA68680721884326
S315100412200399C900884201D000F0A6FA0398C000B9
S315100412302018019902002832914205D02269914260
S315100412405AD3C968A94257D10099019A914243D1F8
S315100412502168039A012090408143216002988542B7
S3151004126000D37EE24068384200D17AE2810700D585
S31510041270C5E10299A269914200D0CEE0E0688119D5
S31510041280E160A5610F436F606069854202D1002059
S315100412906061A060E069884200D364E20D4800688A
S315100412A0002801D1FEF71AFFA169002900D15AE2DC
S315100412B0E068292802D32000FEF702FFE069E168FE
S315100412C0884200D34FE20020C043E0614BE200BFE6
S315100412D0881C0020A42500202830814206D0084608
S315100412E02169884208D38068A84205D10098D06045
S315100412F0019800998860B1E700F03EFAAEE7A96953
S315100413000091EA68AA420DD0A9680192814228D3B5
S31510041310C868A84225D19068A84222D1CA6001980B
S31510041320816020E0290014310A680192002A09D14B
S31510041330290010310A680192002A14D002E0110023
S315100413400A680192019A14321368002BF7D1019A94
S3151004135010321368002BF2D1814202D300200860A8
S3151004136001E000F009FA0098002800D176E7E86950
S315100413708000201898214900401801688D420AD12E
S3151004138001990160002915D16168EA69012090402C
S315100413908143616062E700982169884208D3006935
S315100413A0A8420198009901D1086103E0486101E05F
S315100413B000F0E2F90198002800D14FE7206901995D
S315100413C0814299D30099019A91612969002908D01B
S315100413D0814204D3019801610198886101E000F00B
S315100413E0CBF96869002800D138E72169884283D38C
S315100413F0019948610199816130E70298406801407A
S31510041400032900D02AE7A66002984068B8430299D7
S31510041410486037436F60AE51A5E16269914207D1C6
S31510041420A0688019A060656107436F6028509AE12F
S31510041430072188433618C00820284BD20299896898
S3151004144000910299C9680391019002980399884200
S3151004145001D100F091F902980099884201D100F067
S315100414608BF902984068072188430199C90088427C
S3151004147001D000F081F90198C000201800990200EB
S315100414802832914208D02269914200D2ACE0C96850
S31510041490029A914200D0A7E00399009A914206D18C
S315100414A02168019A01209040814321609EE02830F2
S315100414B0814209D008462169884200D294E08068A6
S315100414C00299884200D08FE00398D060009803995F
S315100414D088608BE00298806901900298C06802992E
S315100414E0884212D0029989680090206981422CD3CF
S315100414F0C868029A904228D100988068904224D1F4
S315100415000098C8600098816021E002981430016840
S315100415100091002909D10298103001680091002920
S3151004152015D002E0080001680091009914310A6888
S31510041530002AF7D1009910310A68002AF2D12169DC
S31510041540884202D30021016001E000F015F90198E8
S3151004155000284BD00298C0698000201898214900B1
S3151004156040180299026891420BD100990160002932
S3151004157017D161680298C269012090408143616065
S3151004158034E001982169884209D300690299884296
S315100415900098019901D1086103E0486101E000F067
S315100415A0EBF80098002821D02069009981421BD3BA
S315100415B00199009A916102990969002908D081421A
S315100415C004D3009801610098886101E000F0D4F812
S315100415D002984069002809D02169884204D30099E9
S315100415E048610099816101E000F0C6F8012030439A
S315100415F06860AE516069854208D1A660B3E0B8430D
S3151004160002994860012030436860AE51F0082028E2
S3151004161025D20090C0002018283001900290102E78
S3151004162001D200F0A9F8206800990200CA403A4095
S3151004163003D18F400743276008E001988068216929
S31510041640884201D3029001E000F096F80198856073
S315100416500298C5600298A8600198E86083E0300A91
S3151004166001D1002227E03904884201D31F2222E047
S31510041670FF21C9434118090C0822114000918840E2
S315100416803B494118090C04221140019188403949FB
S315100416904118090C022211400E22009BD21A019BFA
S315100416A0D21A521A8840C00B10184100C01D3200BD
S315100416B0C2403A408A1890002018982149004018D0
S315100416C00090EA6100206861286161680B00D340CC
S315100416D03B4007D197400F43676000980560009818
S315100416E0A8611EE0009909681F2A01D1320006E09C
S315100416F0192352089B1A32009A4000E039004B68AD
S315100417000727BB43B3420FD0D30F9B00CB1810331C
S3151004171052001F68002FF1D12069834210D31D6037
S31510041720A961ED60AD600DE08A682369994207D31B
S315100417309A4205D3D5608D60AA60E960A86101E07C
S3151004174000F01AF8206A401E20620CD1E4204000F2
S31510041750205800E080680028FCD10020C043206295
S3151004176001E000F009F800F06EF805B0F0BD0000D5
S3151004177000F0FFFF00C0FFFF80B5012000F072F8F3
S3151004178001BD80B501004A6888685310C018D20795
S3151004179001D4096802E0026809685158884701BDF6
S315100417A007490868002801D0002070470548072219
S315100417B09043086004499143091A0160704700BFB9
S315100417C0202600200755002000600020124207D072
S315100417D08B0706D00B78491C0370401C521EF7D891
S315100417E07047830706D00B78491C0370401C521EA1
S315100417F0F9D1704770B4103A03D378C9103A78C047
S31510041800FBD2530701D318C918C001D508C908C09B
S31510041810D20704D30B880380891C801C002A01D5A7
S315100418200B78037070BC704780B5012000F0B3F8D4
S3151004183001BD80B5022000F0AEF801BD80B50420CC
S3151004184000F0A9F801BD80B5012000F0B6F801BD7D
S3151004185080B5022000F0B1F801BD80B5042000F077
S31510041860ACF801BD2021090326311820ABBEF9E7D7
S3151004187010B5574C2068002832D0201D00F07AF994
S315100418802000083000F076F920000C3000F072F9D0
S315100418902000103000F06EF92000143000F06AF9C0
S315100418A02000183000F066F920001C3000F062F9B0
S315100418B02000203000F05EF92000243000F011F9E9
S315100418C02000283000F00DF920002C3000F009F922
S315100418D02000303000F005F92000343000F001F912
S315100418E010BD10B53A4C201D00F002F92000083046
S315100418F000F0FEF820000C3000F0FAF8200010304A
S3151004190000F0F6F82000143000F0F2F82000183039
S3151004191000F0EEF820001C3000F0EAF82000203029
S3151004192000F0E6F82000243000F0AAF82000283051
S3151004193000F0A6F820002C3000F0A2F82000303079
S3151004194000F09EF82000343000F09AF810BD38B537
S3151004195004001F4D2868002801D1FFF7C2FF01209B
S315100419602860002C07D0A078082804DA80002818EC
S31510041970001D00F008F9200032BD002800D1704780
S3151004198080B58078082805DA114980000818001DEA
S3151004199000F001F901BD38B504000D4D2868002882
S315100419A001D1FFF79EFF01202860052C04D2A00068
S315100419B02818243000F097F831BD052800D3704755
S315100419C080B5034980000818243000F08EF801BD54
S315100419D0BC24002080B5634A10007030106180204A
S315100419E0400150614820D0601000243090601820C7
S315100419F0906100BF6BA0106000215B4800F0DAFC18
S31510041A00002802D16AA000F051FD00F0CDFE01BD00
S31510041A1010B54D4C6DA060600B20A0601C20206199
S31510041A2020002030E060201D01F098F8E061207855
S31510041A30002801D001F002F900F0E8F801F086FA66
S31510041A4010BD10B5C046C046C046C04601F0F6FAF1
S31510041A500400000603D001F0F3FA01F005FB3A483E
S31510041A603A4981613A4941613A493B4A11603B49D5
S31510041A703B4A1160047000F051FEFFF7ABFF10BD36
S31510041A8030B585B00400002038490A68002A13D1FD
S31510041A9052A20092C200121A92008A1814320292AA
S31510041AA01C2203920B22019280000D18684601F045
S31510041AB055F82860256012E001204A68002AE7D00C
S31510041AC002208A68002AE3D00320CA68002ADFD0DD
S31510041AD004200A69002ADBD044A000F0E7FC05B014
S31510041AE030BD10B547E080B54EE080B554E0000037
S31510041AF030B585B0040000201D490A001368002B78
S31510041B0014D100BF3EA20092C200121A92008A1883
S31510041B10283202921C2203920B22019280000D1885
S31510041B20684601F01BF8286025600AE0401C5368DB
S31510041B30002BE6D0401C08320A28DFD32BA000F075
S31510041B40B5FC05B030BD000080240020000C000058
S31510041B5000490020000B00000C2600200055002030
S31510041B600826002018070020111A041058200020F7
S31510041B70601E002010B504002068006801F042F8C9
S31510041B800020206010BD80B50021C943006800689C
S31510041B9001F00AF801BD80B50068006801F018F874
S31510041BA001BD00006D61696E5F74687265616400E1
S31510041BB0507265206D61696E207468726561642067
S31510041BC06E6F7420637265617465640073696E6701
S31510041BD06C65746F6E5F6D75746578007379737464
S31510041BE0656D5F6D75746578000000004E6F742026
S31510041BF0656E6F756768206D7574657865730A0010
S31510041C0066696C655F6D75746578000070470028A9
S31510041C1001D0096801607047F0B4130001249A07D3
S31510041C2014D4EFF3108572B6866A32000F0017408B
S31510041C301C4007D08F4207D18E438662002D10D1E7
S31510041C4062B60EE0002FF7D10022F7E7826A080089
S31510041C5010401C4002D0884202D102E0002800D174
S31510041C6000221000F0BC7047002900D1704710B450
S31510041C7020228A56836801E018009B68002B03D043
S31510041C8020241C579442F7DAC8608B608160002BBD
S31510041C9000D0D96010BC704701008868002807D0AE
S31510041CA082688A608268002A00D0D1600021C160EF
S31510041CB0704738B5040025002878012803D1ED684B
S31510041CC0002DF9D131BD200000F005F821002800BF
S31510041CD0FFF7CAFF31BDC168002908D082688A603F
S31510041CE08168002901D0C268CA600021C1607047AA
S31510041CF080B50121417001007148FFF7B5FF01BDA0
S31510041D0010B44169C2690023DB439A4210D10029F9
S31510041D1003D16C4A126B824223D10369002B00D083
S31510041D2059614169002913D100696649086318E0AD
S31510041D30002903D1634BDB6A834212D10369002B5A
S31510041D4003D0DC69A218DA6159614169002905D00A
S31510041D500169426911610021416102E00069594932
S31510041D60C86210BC704738B5564CE56A002D00D1D0
S31510041D707EE0E869401EE8617AD1687813280ED0AF
S31510041D8033280FD0432810D0532819D0632822D0D3
S31510041D9073282BD0832834D093283DD046E001F005
S31510041DA064F943E001F062F940E0280000E0C068FD
S31510041DB0002802D001780129F9D001F058F935E04C
S31510041DC0280000E0C068002802D001780129F9D063
S31510041DD001F04EF92AE0280000E0C068002802D07D
S31510041DE001780129F9D001F044F91FE0280000E038
S31510041DF0C068002802D001780129F9D001F03AF917
S31510041E0014E0280000E0C068002802D001780129F7
S31510041E10F9D001F030F909E0280000E0C068002884
S31510041E2002D001780129F9D001F026F9A86B2030E7
S31510041E300168280001F021F9E868002808D0A9688B
S31510041E408160A868002801D0E968C1600020E860B4
S31510041E5001206870290020001C30FFF705FF2D694A
S31510041E60002D04D0E869002887D000206861E56257
S31510041E7031BD806B2030704710B401214170202190
S31510041E8041560F4A936801E01A009B68002B03D051
S31510041E9020241C57A142F7DBC26083609060002B9C
S31510041EA000D0D86010BC704710B5040002206070D2
S31510041EB00448846100F0E4FA200001F0DFF810BD54
S31510041EC0D4030020B803002070B50400644D287AAA
S31510041ED06E6910D16C6A02282AD1002E28D0002CE3
S31510041EE026D02020305620216156884220DA200040
S31510041EF0FFF7F1FE09E0022813D1002E11D020209D
S31510041F0030562021615688420BDA3000FFF7B4FFB1
S31510041F1002206070AC6100F0B3FA200001F0AEF854
S31510041F2070BD01206070210028001C30FFF79CFE54
S31510041F3070BD70B504000D00160001F09EF8A06B7C
S31510041F40203005602000FFF7DBFE002E03D02000B2
S31510041F50FFF7BAFF70BD0120607021004148FFF7FA
S31510041F6083FE70BDF8B506000F003D4C6569002D63
S31510041F7009D0207A022803D02800FFF7ACFE02E02D
S31510041F80606A002801D10020F2BD280001F077F81C
S31510041F906E700021C94300228F4213460ED1206B66
S31510041FA001E0030000690028FBD1E9616B612A6135
S31510041FB0002B01D01D6119E0256317E0E06A02E0E9
S31510041FC07F1A03000069002802D0C1698F42F7D234
S31510041FD0EF616B612861002B01D01D6100E0E562A1
S31510041FE0002803D0C169C91BC161456120001C309A
S31510041FF0FFF752FE050002206870A56100F040FA52
S31510042000280001F03BF80120F2BD70B50400607899
S31510042010010023D0042821D033281FD126002436CA
S315100420202320225C31682000FFF7F6FD050015D049
S315100420302900200001F021F8706920300560200085
S31510042040FFF75EFE0120607021000648FFF70CFEC4
S315100420502A002320215C306801F012F870BD0000BC
S31510042060B8030020D4030020FBB584B0002804D1A3
S315100420700321C94301F0C0F8CDE0002A3BD0106813
S315100420800290506895681769516900919169002DFD
S315100420900FD0AB0710D1D268482A0DD3002F04D025
S315100420A07A0738D1009A002A35D000290AD1182186
S315100420B00BE0D268002AF1D00821C943002001F0B0
S315100420C09BF8A8E04A1E382A0FD26A46117169464F
S315100420D048710098002818D1002D31D1724EB06A7B
S315100420E000281ED001F0ABF920E00B21C9430020D3
S315100420F001F082F88FE0002002906A4650710027A2
S315100421000090182069460871E8E70098400702D144
S3151004211000984828E0D20A21C943002001F06CF83F
S3151004212079E001224821306A01F0CCF9050005D185
S315100421300421C943002001F05FF86CE0012400E09B
S315100421400024002F13D1584E009800284AD157481E
S31510042150406D0090706A002844D001F070F90700B1
S3151004216047D02000102404432000022404430120F5
S3151004217028706870AC7068464079E8700298686098
S315100421800020A860E86028616861A861E861694672
S3151004219009792022A954290021316A4612790A7034
S315100421A0FD224A7088702C00243420606060A06080
S315100421B0E7600098206100983818403860610498E8
S315100421C0A0613B4838603E1D38480078400724D546
S315100421D000988008113821D036493160361D401ECA
S315100421E01CD0FAE700220099706901F06BF9070018
S315100421F0BAD10421C943002000F0FEFFE0070AD536
S31510042200B06A002803D0290001F039F903E0290047
S31510042210306A01F08FF9002027E066693421300016
S3151004222001F0DAF930003430234901600499416031
S315100422308021490481600599143801601F4820499A
S315100422400866280001F0CAF91E480068002806D05E
S315100422508268100003D006992800904700E006987B
S3151004226020622800FFF730FE280007B0F0BD10B535
S31510042270040005D02078012802D16078002805D101
S315100422800021200001F0ABF9002010BD6168200088
S3151004229001F0A5F9606810BD10B50948446920001D
S315100422A001F09EF9200010BD180400202C8A041099
S315100422B0A52E5AE2CCCCCCCC592404100B200410F5
S315100422C0B8030020EC25002010B50400002060702F
S315100422D0A07881070AD5216B344AC00603D5106944
S315100422E001F0CDF802E0106801F024F9A078C007D7
S315100422F00BD52E4A5069002803D0210001F0BFF8EF
S3151004230010BD2100D06801F015F910BD70B5284C28
S315100423106569002D49D0E86A00F080FAAE69002E8E
S3151004232014D00021300000F0A8FE0020B16B20313B
S3151004233008603000FFF7E4FC0120707031002000C3
S315100423401C30FFF791FCA86901F04BF9207A02289A
S315100423502BD1606A002828D0EFF30980A8632000E7
S315100423601C30FFF799FC060002207070A66100F07D
S3151004237087F8300000F082FE00206061E978C90712
S3151004238002D5A969002903D02800FFF79DFF09E0AB
S3151004239004216970E860606BA860606B002800D047
S315100423A0C5606563280001F01DF970BD2C0400207A
S315100423B0B803002080B5002300F002F802BD000027
S315100423C0F8B504000E00150001F00DF9EFF30580C1
S315100423D0002803D1EFF31080002806D00521C94345
S315100423E0002000F009FF0020F2BDEFF314808007EF
S315100423F006D4EFF3088020380721884380F3098830
S315100424001B480746009B2A003100200000DFF2BD5E
S3151004241080B5EFF30581002903D1EFF3108100296C
S3151004242004D0002101F0DBF8002080BD11490F46CD
S3151004243000DF80BD80B5EFF30580002803D1EFF3EC
S315100424401080002804D0002001F0CAF8002080BDB6
S315100424500948074600DF80BD00F0A2FF074807467B
S3151004246000DF0021C943002000F0C6FEFEE700008D
S31510042470692004106F220410992204100D230410ED
S3151004248008484169002900D1704780B5086B8A6BEA
S31510042490904203D20068044A904202D0012000F010
S315100424A0F9FD01BDB8030020A52E5AE20EB400B5FD
S315100424B007490A78002A07D101220A7001A901F0F6
S315100424C09BF8012001F08CF9009804B0004700BF76
S315100424D0FD230020F8B58E4D2F00083738780128D3
S315100424E000D1B0E0002814D19C21380001F074F812
S315100424F0884C606D482806D20A20C04300F050FE6E
S315100425000020C043F2BDE068002802D0218A0A00E8
S3151004251001D1002424E12E005436B0603180A06825
S31510042520B863E56A216B280001F084F9002800D00D
S31510042530F5626569A169280001F07CF9002800D1CB
S31510042540F56A3562E569216A280001F073F90028F5
S3151004255000D1F56A7562656AA16A280001F06AF904
S31510042560002800D1F56AB562656B002D08D0EB68BA
S31510042570AA682968280000F03FFF002800D03563B8
S31510042580A56B002D08D0EB68AA682968280000F00E
S3151004259033FF002800D07563E56B002D08D0EB6877
S315100425A0AA682968280000F027FF002800D0B56320
S315100425B0256C002D08D0EB68AA682968280000F05D
S315100425C01BFF002800D0F563656C002D08D0EB685E
S315100425D0AA682968280000F00FFF002800D0356487
S315100425E0A56C002D08D0EB68AA682968280000F0AD
S315100425F003FF002800D07564E56C002D08D0EB6845
S31510042600AA682968280000F0F7FE002800D0B564EF
S31510042610246D002C08D0E368A2682168200000F01D
S31510042620EBFE002800D0F4643B484168FF221204F4
S315100426300A434260416802684902890E89061143B9
S3151004264001600120387001F014F90020F2BD000079
S315100426505254582056352E322E32000010B52C4CBA
S31510042660207A01F007F9207A10BD38B5284C207A63
S31510042670012804D00620C04300F092FD28E0254D21
S31510042680A06A002808D10023AA6D00213148FFF75B
S31510042690EBFCA062002824D0686E00280BD0A06C36
S315100426A0002808D10023EA6D00212B48FFF7DCFC33
S315100426B0A064002815D02949686801F0DDF80028BF
S315100426C006D101F0FFF8206101F000F9002802D0CC
S315100426D00020C04332BD20001C30FFF7DDFA00286D
S315100426E006D10024E443200000F05AFD200032BD38
S315100426F0FFF7DAFB2878C00701D5022000E0032093
S3151004270080F314880220207201F0F8F8002032BDFC
S31510042710B80300202C8A04101CED00E098B501F0D3
S31510042720EEF8EFF30580002803D1EFF310800028AC
S3151004273000D063E0EFF31480800706D4EFF308802B
S3151004274020380721884380F309883048074600DF7C
S3151004275092BD00008D300410C982041063870410E2
S31510042760E443200000F01CFD2000F2BD98B5EFF301
S315100427700580002803D1EFF31080002806D000242A
S31510042780E443200001F076F8200092BDEFF31480A4
S31510042790C00705D4184C207A01F06CF8207A92BD43
S315100427A01B48074600DF92BD98B501F0A9F8EFF370
S315100427B00580002803D1EFF31080002800D01DE017
S315100427C0FFF7D4FF022807D012480068002803D068
S315100427D04068010000D08047EFF31480800706D4C8
S315100427E0EFF3088020380721884380F309880A48C4
S315100427F0074600DF92BD0000B80300200524E44319
S31510042800200000F0CDFC200092BD0000D524041059
S315100428105D260410EC2500206B260410F8B506007E
S315100428200027002E1FE07569F07800071AD5377651
S315100428300021300001F065F8B068002812D030008D
S31510042840FFF72AFA040000220021FFF772FBF46056
S31510042850E06A70613761E66201203076012130004A
S3151004286001F050F82E00DED1F1BD70B5002810D05D
S31510042870056844688668002E06D0B10707D1C0687B
S315100428801C2804D300201CE0C068002803D00821AB
S3151004289010E0002400257E4B5869002802D000F071
S315100428A0CEFD04E001221C21186800F00BFE060080
S315100428B006D10421C943002000F0F0FC002070BDAD
S315100428C001200421317001217170B070F4707560AB
S315100428D00024B460F460346174613476300001F01D
S315100428E012F8300070BD70B504000E00AD4845698D
S315100428F0002D06D10721C943200000F0CFFC00208B
S3151004290054E0002C02D02078042801D0032503E0DB
S315100429106078002801D10225BCE0217E08000DD183
S31510042920E560E86A606100202061E86A002800D04A
S315100429300461EC6201202076012110E0E078C207E0
S3151004294012D5E268AA420FD1FF2905D10F21C94336
S31510042950200000F0A3FC28E0491C2176C9B220000F
S3151004296000F0D0FF002070BD002E1BD080070BD5C1
S3151004297020202856E16820228A56824204DA202230
S315100429808854E068FFF795F93100200000F0BCFF89
S3151004299029002000FFF768F931005320FFF7E2FA07
S315100429A0012003E0200000F0B0FF0220C04370BDF8
S315100429B070B504007B484569002D06D10721C9432B
S315100429C0200000F06BFC002019E0002C02D02078C7
S315100429D0042801D0032503E06078002801D10225DC
S315100429E058E0E068A84201D00D2103E0207E0100E2
S315100429F007D10E21C943200000F050FC0220C04329
S31510042A0070BD411E2176C9B2200000F07AFF207EE7
S31510042A10002839D16069002801D021690161206933
S31510042A20002802D06169416101E06069E862E078DA
S31510042A3080070FD521202856E96A202607E08A68E0
S31510042A40002A03D09257904200DA100049690029EF
S31510042A50F5D1A855A068002813D02000FFF71CF95B
S31510042A60050000220021FFF764FAE560E86A606158
S31510042A7000202061EC62012020760121200000F064
S31510042A8041FF0020FFF720FA002070BD000000006F
S31510042A9038040020ED432900200000F0FFFB280035
S31510042AA070BD70B5040002D02078042801D0032527
S31510042AB003E06078002801D10225EBE7002060705E
S31510042AC0207E002836D0E0686169002901D0226989
S31510042AD00A612169002902D062694A6101E06169CB
S31510042AE0C162E178890714D521214156C26A20268C
S31510042AF007E09368002B03D09B57994200DA19001C
S31510042B005269002AF5D182578A4202D08155FFF7BD
S31510042B10D0F8A06800280AD02000FFF7BDF80022DC
S31510042B200221C943FFF705FAA0680028F4D1002052
S31510042B30FFF7CAF9A078C0070BD53B4A506900289D
S31510042B4003D0210000F09BFC03E02100106800F084
S31510042B50F1FC200000F0DAFE002070BD98B50400E8
S31510042B6000F0D5FEEFF30580002803D1EFF31080B3
S31510042B70002806D00521C943002000F08FFB002051
S31510042B8092BDEFF31480800706D4EFF30880203843
S31510042B900721884380F3098824480746200000DF6C
S31510042BA092BD0000B8030020B0B504000D0000F07B
S31510042BB0AFFEEFF30580002803D1EFF31080002851
S31510042BC000D017E01A4807462900200000DFB0BDE0
S31510042BD0B0B5040000F09DFEEFF30580002803D184
S31510042BE0EFF31080002800D004E0124807462000B6
S31510042BF000DFB0BD0525ED432900200000F04EFB93
S31510042C002800B0BDB0B5040000F084FEEFF30580D3
S31510042C10002803D1EFF31080002800D0EAE7064815
S31510042C200746200000DFB0BD380400206B280410CE
S31510042C30E7280410B1290410A32A041080B5044906
S31510042C4079440C31034878440A3000F065FE01BD1E
S31510042C507C6500007465000010B5B94C0020002195
S31510042C6003C4083C01220621200000F0C5FE002200
S31510042C70D02189002000083000F0D6FEB14AB249AE
S31510042C8000F0F9FE10BD80B5002000F00DFF00F035
S31510042C9067FF00F0C9FF01BD10B582B0CC480178BA
S31510042CA0491CC9B2AF2900D1642101704468017866
S31510042CB0201D00F0C6FF206800F060FF2179C907C7
S31510042CC001D5032300E0022300210091221DE18C8B
S31510042CD00468E468A04713BD38B5994C200000F089
S31510042CE0FBFF411E8941C90F200000F0DCFF0020C4
S31510042CF000F0DAFE00F032FF806D8107C90F12D0A2
S31510042D0004212000083001F05BF805000BD0B1480F
S31510042D102860B149280001F0FBF92A00AF492000C8
S31510042D20083001F013F931BD30B583B0002000F03E
S31510042D30BBFE00F015FF01AA694603685B68984755
S31510042D40B0A001F0E9F900BFB4A401AD697920007F
S31510042D5001F0E2F92979200001F0DEF9E978200082
S31510042D6001F0DAF9A978200001F0D6F96978200083
S31510042D7001F0D2F9297800BFAAA001F0CDF903B069
S31510042D8030BD000070B590B005680079002800D0F9
S31510042D90A9E02868002800D0A5E091490AA801F006
S31510042DA0CDF9280000F0DCFE0400142000F01EFD0E
S31510042DB0002802D00AA901F0D1F92100A4310A6829
S31510042DC0002A00D002610860B02000F00FFD804C8C
S31510042DD0002804D003232278290001F0CBF960607F
S31510042DE0280000F0BDFE040001A821000A312222A9
S31510042DF0FEF7ECFC062069468870012300AA921C93
S31510042E00012101A801F042FA00280ED12200343221
S31510042E1001A9200023689B6F9847002805D120003C
S31510042E200A3001A92222FEF7D1FC280000F098FEF0
S31510042E30022300BF7EA2032101F040FA280000F00D
S31510042E408FFE040001A821000A312222FEF7BEFCDF
S31510042E50D02080006946088001A9088402236A46A6
S31510042E60192101A801F012FA00280ED122003432D9
S31510042E7001A9200023689B6F9847002805D12000DC
S31510042E800A3001A92222FEF7A1FC280000F068FEF0
S31510042E90042300BF65A2092101F010FA280000F0EE
S31510042EA05FFE00210171280000F05AFE0400C826B6
S31510042EB0F6002168896888474A4988420BD320005E
S31510042EC0216889688847FA218900414308004649E0
S31510042ED001F033FA0600E680280000F041FE00F007
S31510042EE0A3FEFFF721FF10B070BD000030B585B00A
S31510042EF0002000F0D9FD00BF4EA10CC901006846A0
S31510042F0001F072FA0E4C10212000083000F058FF20
S31510042F1000280CD0694601F07FFA0500334901F008
S31510042F20F7F82A0032492000083001F00FF8039907
S31510042F30002902D068468968884705B030BD00006C
S31510042F406C2100201C260020553A041070B58AB056
S31510042F50284C04212000083000F032FF050015D05B
S31510042F6025482860FA2676003100280001F0CAF8B0
S31510042F703100280001F0C9F81749280001F0C8F8F3
S31510042F802A0016492000083000F0E0FF002000F067
S31510042F908BFD05001949684601F04AFA010028001C
S31510042FA000F00CFE1649684601F052FA010005A815
S31510042FB001F05EFA0100280000F064FD0021C94307
S31510042FC02000083000F053FD00200AB070BD000048
S31510042FD0CC020020992C0410173904109191041076
S31510042FE0872C0410E903000071020000CD90041030
S31510042FF0D98E04106C210020D92C0410ED2E041047
S31510043000852D0410444556494345204D41432041DE
S315100430104444524553533A20000000002530327878
S315100430203A000000253032780D0A000048524D004F
S315100430300D180000993B0410000000000120704791
S3151004304010B5074979441831064C7C44163404E00B
S31510043050081D0A68891888470100A142F8D110BDD5
S31510043060A05E0000F45E000070477047704770471A
S31510043070704770477047704770477047704770477E
S315100430807047002801D009680160704701F006FAFC
S31510043090FCE7000004000D00FFF7CCF9012C07D063
S315100430A022D3032C11D00BD3052C19D014D31BE027
S315100430B02800FFF7ADF903002A0001210D4808E0A6
S315100430C02B00020002210C4803E02B00020003210E
S315100430D00A48FFF7EBF90CE002000421084806E061
S315100430E00200052107A002E0020021001DA0FFF73F
S315100430F0DDF9FEE7C07F0410148004106C80041000
S31510043100D4800410434D5349532D52544F532065C4
S3151004311072726F723A2053544420432F432B2B2040
S315100431206C696272617279206D7574657820696E46
S31510043130697469616C697A6174696F6E2066616914
S315100431406C656420287374617475733A203078251D
S31510043150582C207461736B2049443A2030782558D2
S31510043160290A0D00434D5349532D52544F5320658C
S3151004317072726F723A20556E6B6E6F776E2028736B
S3151004318074617475733A20307825582C20746173E1
S315100431906B2049443A2030782558290A0D0000003E
S315100431A080B50522D243811A052913D801A2525C8F
S315100431B0974400BF060C1014181C00BF48A20AE05E
S315100431C04EA208E053A206E056A204E05BA202E077
S315100431D067A200E06CA2010001A0FFF767F901BD28
S315100431E04B65726E656C206572726F722025693A32
S315100431F02025730D0A00000080B50523DB43CA1A87
S31510043200052A13D801A39B5C9F4400BF060C101417
S31510043210181C00BF32A30AE038A308E03DA306E059
S3151004322040A304E045A302E051A300E056A30A001C
S31510043230010000BF01A0FFF739F901BD546872659A
S315100432406164202570206572726F722025693A2098
S3151004325025730D0A0000000080B50523DB43CA1A46
S31510043260052A13D801A39B5C9F4400BF060C1014B7
S31510043270181C00BF1AA30AE020A308E025A306E041
S3151004328028A304E02DA302E039A300E03EA30A001C
S31510043290010000BF45A0FFF709F901BD80B505235C
S315100432A0DB43CA1A052A13D801A39B5C9F4400BFAB
S315100432B0060C1014181C00BF09A30AE00FA308E09B
S315100432C014A306E017A304E01CA302E028A300E05D
S315100432D02DA30A00010000BF3AA0FFF7E7F801BDCD
S315100432E04E6F7420616C6C6F77656420696E20492B
S315100432F0535220636F6E7465787400005379737437
S31510043300656D206973206F7574206F66206D656D09
S315100433106F727900506172616D65746572206572A1
S31510043320726F72005265736F75726365206E6F7477
S3151004333020617661696C61626C6500004F7065721C
S315100433406174696F6E206E6F7420636F6D706C6537
S315100433507465642077697468696E2074686520746E
S31510043360696D656F757420706572696F640000000D
S31510043370556E7370656369666965642052544F535C
S31510043380206572726F720000556E6B6E6F776E00E9
S3151004339080B50A00010000BF10A0FFF787F801BD31
S315100433A080B5FFF747F801F081F801BD4576656EE3
S315100433B074202570206572726F722025693A202553
S315100433C0730D0A004D757465782025702065727228
S315100433D06F722025693A2025730D0A004D657373A3
S315100433E06167652051756575652025702065727253
S315100433F06F722025690D0A00F8B50D0017001C0020
S31510043400002805D0002D03D0002F01D0002C01D1A7
S315100434100020F2BD0560002646608760C4604461E2
S31510043420794361180161290001F04EF802E0E019B0
S31510043430206004006D1EFAD126600120F2BD10B57D
S31510043440EFF31081002804D1002101F03EF800208A
S3151004345010BD72B6426803689A4207D2521C426083
S315100434604469002C03D02268426100E0002400293C
S3151004347000D162B6210001F028F8200010BD10B565
S31510043480EFF31082002805D0C468A14202D3046960
S31510043490A14202D30324E4430FE072B64368002B1F
S315100434A006D05B1E436043690B604161002401E052
S315100434B00224E443002A00D162B6220001F006F881
S315100434C0200010BDF8B5002822D0002920D093087A
S315100434D09B001DD10F3107239943030008331C00A9
S315100434E01D682F1BBC465E680327BE436746BE1B7A
S315100434F08E4209D345686D1845605E6815000D4304
S31510043500002E0AD15D600FE02B001C68002CE6D15A
S31510043510002300F0DCFF0020F2BD0327BE43A419EC
S315100435201E68266065601C600834230000F0CFFF17
S315100435302000F2BDF8B500280DD000290BD00A00E2
S31510043540083A0023002405000835954208D02C00BB
S315100435502D68002DF9D1002200F0BAFF0020F2BD2B
S3151004356042686E680327BE43921B4260002C01D149
S315100435706B6001E02A682260012200F0A9FF012095
S31510043580F2BD70471206130A1A43130C1A4300BFEE
S31510043590094205D0830705D00270401C491EF9D193
S315100435A070470000130030B414001500103902D30C
S315100435B010393CC0FCD2490700D30CC000D504C056
S315100435C0890002D30280801C002900D5027030BC09
S315100435D0704700000022DBE70022E3E770477047DC
S315100435E070477047704770470EB400B501A900F0D4
S315100435F003F8009804B0004770B5A0B004000D009D
S3151004360000F076FF2B0022008021684600F09CFF14
S315100436100400012C11DB0B480068002804D10B228E
S315100436200821094800F0AEFF6D46074E2978300090
S3151004363000F0E3FF6D1C641EF8D101F011F820B000
S3151004364070BD000010260020D025002010B50328D8
S3151004365018DB0D49800009180C39086800220A6025
S31510043660002803D101F01CF8092107E00168496913
S315100436708847040006D501F013F861420160002062
S31510043680C04310BD002010BDD4210020F8B504009D
S315100436900D00170000F025FF002803D100F01AFFD3
S315100436A0002802D11FA0FEF701FF032C1BDA1B48CA
S315100436B0006800280AD11A4E0B220821300000F0A7
S315100436C061FF96218901300000F0A2FF002F23D05C
S315100436D02C003D00124E2178300000F08EFF641C41
S315100436E06D1EF8D118E03D48A10040180C3800684A
S315100436F0002806D100F0D4FF092101600020C04340
S31510043700F2BD3A0029000368DB689847070003D521
S3151004371000F0C6FF794201603800F2BD1026002081
S31510043720D02500204572726F72202D20777269742D
S31510043730696E6720746F20612066696C6520696EF6
S3151004374020616E20495352206F7220637269746926
S3151004375063616C2073656374696F6E0D0A000000F3
S3151004376010B5032803DA00F09BFF1D2112E01B4B52
S31510043770800018180C380068002803D100F090FF58
S31510043780092107E003681B699847040005D500F072
S3151004379087FF614201600020C04310BD1CB50100C3
S315100437A0684600F085FF00F0A5FF040003D100F081
S315100437B077FF13210CE0684600F09AFF0100200001
S315100437C0226812699047040006D500F069FF614229
S315100437D001600020C04316BD002016BDD421002070
S315100437E0002801D000F096FFFEE7000010B5FDF7A3
S315100437F05BFB040003D100BF06A0FEF757FE2000B2
S3151004380010BD0000002800D1704780B5FDF7C8FC34
S3151004381001BD00004F70657261746F72206E65771A
S31510043820206F7574206F66206D656D6F72790D0A41
S315100438300000000010B5002806D00722104203D15C
S315100438400A4001D1182904D2002200F0DDFF00201D
S3151004385010BD016010224260020008324318083B72
S31510043860136000241C605460012200F0CDFF012077
S3151004387010BD70477047704700B5010007D00D485A
S3151004388000F05BFD401E80214904884202D30020CB
S31510043890C04300BD08490A68FF231B0613430B6087
S315100438A0064906220A6048600020886004490870A8
S315100438B000BD00BF20A1070020ED00E010E000E0ED
S315100438C0FE2300200020C043704770470848017843
S315100438D0002905D0002101708020C0040549086024
S315100438E00548016801220A4302600020704700BFA0
S315100438F0FE23002004ED00E010E000E0704770475E
S3151004390070477047704770477047704770477047E5
S31510043910704770477047704738B505000C00A542CC
S3151004392005D02868401980472D1DA542F9D131BD0F
S31510043930F8B504000F001500FDF780FF1C48016858
S31510043940002900D11B491C4A914201D3002601E0EB
S315100439500E000C310160FDF780FF002E01D101200D
S31510043960F2BD37607460B5600020F2BD80B50020EA
S3151004397000F001F801BDF8B50D4C2668350000D1EC
S31510043980F1BD0C4F0BE0050006000C3D69680800FC
S3151004399005D0002068602868002806D0884720686B
S315100439A08642F0D1BD42F0D1F1BD8847F7E7000059
S315100439B0182600205C05002018070020F8B505001D
S315100439C00C0017001E0000F076F90020C043844254
S315100439D00BD03100280000F066F90121280000F010
S315100439E04EF93900280000F03BF9F1BD80B50023EB
S315100439F00022FFF7E3FF01BD70B504000D001600A9
S31510043A0000F059F90020C04385420BD03100200044
S31510043A1000F049F90121200000F031F900212000BD
S31510043A2000F01EF970BDFEE770B504000D00160017
S31510043A300021503000F0EAFE002E04D129002000A7
S31510043A4000F054F904E032002900200000F060F977
S31510043A50200070BD10B5040000F089F9E16D00294D
S31510043A6003D02000503089688847200010BD80B5E7
S31510043A7000F085FA01BD80B5030008001900FFF7B0
S31510043A8057FF02BD30B585B004006568684600F07E
S31510043A90EFFC0200216828002B68DB6898470100B8
S31510043AA000D1002005B030BD70B52B4C002827D1AD
S31510043AB0206A002822D12020FFF798FE0600002550
S31510043AC0002E1AD0356075600021083000F0B0FC65
S31510043AD03577306800280ED1A06A002805D100F089
S31510043AE0ADFE31688900611888623068800020183C
S31510043AF0806A706000E0756035002562206A70BDCA
S31510043B000125606A284025D12000243000F01CFFCE
S31510043B1000281FD02560002565600021200008308C
S31510043B2000F086FC2577206800280ED1A06A0028AC
S31510043B3005D100F083FE2168890061188862206827
S31510043B4080002018806A606000E0656020002430E0
S31510043B5000F007FF200070BD2825002010B501E0F5
S31510043B6010B500BF04006068002802D121A0FEF73A
S31510043B709DFC60680168C969884710BD10B500BF0F
S31510043B8004006068002802D11AA0FEF78FFC606852
S31510043B900168496A884710BD10B50400207F0028C3
S31510043BA00BD06068002802D112A0FEF77FFC00201B
S31510043BB02077606801688968884710BD38B50200A7
S31510043BC0083238C938C20C39CA6842610021816189
S31510043BD0017F00290CD08168002901D110A100E0D1
S31510043BE00DA10968002903D0009069460830904752
S31510043BF031BD00006261642068616E646C65207476
S31510043C006F20756E6465726C79696E672074726163
S31510043C106E73706F72740000773804100000000021
S31510043C20000000000000000010B50400211D2268E9
S31510043C30D26F9047010003D1A16D01220A43A265F8
S31510043C4010BD0278FF2904DCFE2313400370417073
S31510043C5070470123134303704170090A817070473A
S31510043C6038B50400207905004A1E9241D243D20F7A
S31510043C70A271062802D10120A07160710EE038B538
S31510043C800400002904D0062506200121012202E0A1
S31510043C90002500200022A17162712071200000F01D
S31510043CA069FE257131BD80B50068002900D0012157
S31510043CB000F0B2FE01BD38B504000D00012101204B
S31510043CC000F0BEFE280000F0C7FE20600625257110
S31510043CD00120A0716071E1E780B5006800F099FEDB
S31510043CE0401E8041C043C00F02BD000070B50400E1
S31510043CF00E003000FDF7D8F8050002D10020C043AD
S31510043D0070BD2A003100200000F002F8A56170BDD4
S31510043D1038B5040022610025A5616561080003E039
S31510043D2063695B1C63614008FAD1E56121626262D2
S31510043D30256000F0A3FE60602573A560200028307E
S31510043D400570456085602000343000F00CFF0028B3
S31510043D500CD42000483000F0FBFE002806D42000C6
S31510043D604C3000F0F5FE002800DD002032BD70B5A1
S31510043D700400256809E0F169080002D030002430F7
S31510043D808847F668002EF6D1AD68002D01D0266856
S31510043D90F8E7E26A100003D00021C943206B90476C
S31510043DA020004C3000F0D6FE2000483000F0D2FE41
S31510043DB02000343000F0F0FEA069FDF7F1F970BD73
S31510043DC070B505002731032081430C0028004C30C0
S31510043DD000F0C1FE28001C3001E00800083001681C
S31510043DE0002914D00A68A242F7D30E46F1680029B6
S31510043DF003D00160B068886001E0B16801602800F2
S31510043E004C3000F0ACFE002E12D1002070BD286A92
S31510043E10A04208D36E6A31196962001B28623460A5
S31510043E2001203071EBE728004C3000F098FEECE7E7
S31510043E30002070610021C943B161F0613000243063
S31510043E4070BD38B5040008000500243DE9690A0070
S31510043E5000D0884720004C3000F07DFE20001C3036
S31510043E602B6801E0080008300168002902D00A68AE
S31510043E709A42F7D3002906D00A689A4203D1E96018
S31510043E800168896802E00021E9600168A96005609B
S31510043E9020004C3000F063FE31BDF8B504000D006F
S31510043EA0170028796169884021696E1A0643686982
S31510043EB0C01BC117884338186861207B68712000BD
S31510043EC0483000F048FE2000696901E0100008300F
S31510043ED00268002A02D053695B1AF7D411460029E6
S31510043EE00FD04A696B699A420BD18968A960002977
S31510043EF002D02A0008320A6101682A000C320A61CB
S31510043F0006E0A960002902D02A0008320A610021BD
S31510043F10E9600560286120002830426811000ED03F
S31510043F20017800290BD02168A94208D1E968002933
S31510043F3005D16969C91BCB17994380689047FFE778
S31510043F402000483000F00BFE3000F2BD70B50400BE
S31510043F500E00150000F092FD29001039CE600A6893
S31510043F6012180A600200243D29002000FFF795FF6D
S31510043F7005002000343000F014FE280070BDF2B5A0
S31510043F8082B0040000F07AFD05000298281801900A
S31510043F9000272821675406E02000483000F0DFFD92
S31510043FA000F06CFD05002000483000F0D4FD207BA5
S31510043FB0401C20736068401B012800DA6560206885
S31510043FC00090684601E0080008300168002903D013
S31510043FD04A69521B012AF6DB2160002900D00C61C4
S31510043FE007602000483000F0BAFD684600990BE0DF
S31510043FF00A00916800231500AB602B00ED68002DB4
S31510044000FAD10360100008300029F1D1009E09E0AE
S3151004401069690818686100F031FD02002900200062
S31510044020FFF73BFF002E19D03500AE68296A080049
S3151004403002D0280024308847A8690028E8D52879B2
S31510044040401C2871C0B26169884001D101202871D1
S31510044050290024312000FFF7F4FEE3E70025ED43A1
S3151004406000F00CFD06000298002820D40198851B48
S31510044070012D1CDA200028304068002840D020008A
S31510044080483000F068FD20002830426810000AD03D
S315100440902068002807D04069811BC8178143200077
S315100440A028308068904701202821605424E020009D
S315100440B0483000F050FD2068002806D04069801B67
S315100440C0C1178843A84200D205002000483000F0EA
S315100440D046FD29002000343000F069FDA068002850
S315100440E000D15DE72000483000F035FDA0680028B7
S315100440F000D151E7401EA0602000483000F02FFD8B
S3151004410003B0F0BD1038016070470C380160704779
S31510044110083801607047FEE70EB400B582B003A9F3
S3151004412000916B4602000121034878440A3000F0DE
S315100441304DFD029906B00847714E000010B40022D6
S31510044140002300241CC00C38C260026101600249BD
S31510044150C16010BC704700BFDD90041010B41CC9B8
S315100441601CC00C390C38C968C1600021016110BC2F
S315100441707047FEE7F8B590B00400150021600321DE
S31510044180201DFFF729FA2900201DFFF75AFD207973
S31510044190C00701D5032600E002266F4600253D70B0
S315100441A01021781CFFF716FA35487882397821726F
S315100441B060831022791C20000930FDF707FB201DAF
S315100441C0E0610320208466842000243001260670D2
S315100441D04580102101714671856000210173417378
S315100441E081732000343001F061FD00212000483035
S315100441F001F06CFD02AF3D701021781CFFF7EAF94F
S315100442002048788201950096012310AA02A920005D
S315100442105C3001F06BFD20007C3002210170467089
S31510044220456000210172417281722000883001F0CC
S315100442303DFD002120009C3001F048FD200008308F
S31510044240009020005C30019002AE35701021701C75
S31510044250FFF7C0F90C48708202A907A801F05DFDAA
S3151004426007A80221017569460D9185832068FFF719
S3151004427085FC07A9026812689047200011B0F0BDAA
S31510044280372A0000382A00000D18000070B582B0D5
S31510044290002403E02D786419641CE4B2C57FAC4293
S315100442A009DA05196E788E42F4D1002D03D00095E3
S315100442B001F040FD76BD01F0A0FD76BDF0B589B0E4
S315100442C004000D0016001F00684621000A31222240
S315100442D0FDF77CFA3B00320029006846FFF7D6FF4B
S315100442E001000FD1220034326946200023689B6FE7
S315100442F09847050005D120000A3069462222FDF7A9
S3151004430065FA280009B0F0BDF446002804D44942E1
S3151004431000F013F8404260474042002905D45FD0AC
S3151004432000F00BF8404249426047494200F005F854
S315100443304942604703460B43E6D40022030A8B42E4
S315100443400BD203098B4219D243088B422ED2411A3F
S3151004435000D20146524110467047FF2209023FD04F
S3151004436012068B4205D3121209028B4201D3121282
S31510044370090203098B4219D300E0090AC3098B42C7
S3151004438001D3CB01C01A524183098B4201D38B014D
S31510044390C01A524143098B4201D34B01C01A5241F0
S315100443A003098B4201D30B01C01A5241C3088B4235
S315100443B001D3CB00C01A524183088B4201D38B0020
S315100443C0C01A524143088B4201D34B00C01A5241C2
S315100443D0884200D3401A5241CFD201461046704744
S315100443E008B501F033FD08BD10B584B00400684665
S315100443F001F02DFD00200021002200230FC4103CE3
S3151004440003D068460EC80EC40C3C0248E060200077
S3151004441004B010BD4891041038B505000C00E268CC
S31510044420002A01D052689047E068E860280032BD3F
S3151004443010B40022002300241CC00C38C260026190
S3151004444001600249C16010BC704700BF0D91041091
S3151004445010B40022002300241CC00C38C260026170
S3151004446001600249C16010BC704700BF1D91041061
S3151004447010B41CC91CC00C390C38C968C1600021A1
S31510044480016110BC7047FEE780B500F031F801F009
S31510044490E2FC01F0E1FC00F0E3F801BD10B5024CBA
S315100444A020688047FCE70000D4020020034909680D
S315100444B00A0000D1704780B5884701BD1426002034
S315100444C080B501F0D5FC02BD704770477047704740
S315100444D07047FEE7EFF31080C107C90F012048406B
S315100444E07047EFF30580401E8041C043C00F7047EC
S315100444F038B5EFF31080C507ED0F72B60E4C606831
S31510044500002800D1257060680021C943884204D16F
S3151004451043220A490A4801F0C7FC6068002806D0FD
S31510044520002D04D147220549064801F0BDFC6068F8
S31510044530401C606031BD00BFE02500205089041086
S31510044540288904109889041018B583B0002402949D
S31510044550002902D10094019402E00090491E0191B1
S3151004456003AB694606487844163000F02FFB0099D1
S31510044570002900D00C70002800D4029804B010BD95
S31510044580F5490000F4B586B007000C000121092096
S3151004459000F056FA200000F05FFA009001246D46F0
S315100445A02C710026AE716E71684600F0E3F9694607
S315100445B01820085600F050FA00902C71684600F046
S315100445C0D9F9E12040020290032002A9087148712A
S315100445D0CE804E7208728C7202A801F09BFC1D48A4
S315100445E0386002A8B860002001F04AFD012001F0ED
S315100445F085FC1948046007B0F0BD10B50C002020E6
S3151004460001F021FD0128FAD0A0B201F017FD10BD6A
S3151004461080680160704710B5102001F025FD002850
S3151004462007D0102001F029FD0C4A002150681268A9
S31510044630904780246401200001F016FD002807D05D
S31510044640200001F01AFD054A0121506812689047AE
S3151004465010BD00000000304010260020F025002078
S3151004466010B50C4C6068002812D0EFF31080C00708
S3151004467004D458220849094801F016FC6068401E03
S3151004468060606068002803D12078002800D162B6E3
S3151004469010BD00BFE025002050890410988904102D
S315100446A080B5024801F00EFD02BD00005C04002036
S315100446B010B50400080000212160616002782F2AD9
S315100446C014D14278002A11D0421C01E0491C521C14
S315100446D02260226813782F2B02D1521C226001E02B
S315100446E0002BF3D1401C01F0EFFC6060200010BDDC
S315100446F00068704710B504006068002808D001F0FF
S3151004470011FD012804D16068002802D0001F10BDD5
S31510044710002010BD1CB5FFF7EBFE06216846FFF717
S3151004472065F9C824640001216846FFF7BCFA96208F
S3151004473001F0FAFC00216846FFF7B5FA962001F05D
S31510044740F3FC01216846FFF7AEFA962001F0ECFC63
S3151004475000216846FFF7A7FA962001F0E5FC01212F
S315100447606846FFF7A0FA962001F0DEFC00216846A1
S31510044770FFF799FA962001F0D7FC01216846FFF756
S3151004478092FA962001F0D0FC00216846FFF78BFAC6
S31510044790962001F0C9FC01216846FFF784FA20002F
S315100447A001F0C2FC00216846FFF77DFA200001F0F3
S315100447B0BBFC01216846FFF776FA200001F0B4FC31
S315100447C000216846FFF76FFA200001F0ADFC0121C5
S315100447D06846FFF768FA200001F0A6FC0021684637
S315100447E0FFF761FA200001F09FFC01216846FFF7EC
S315100447F05AFA200001F098FC00216846FFF753FA94
S31510044800200001F091FC8EE77047FEE730B40A00F1
S3151004481006D100210022002300241EC0103809E00E
S3151004482000220023002400253CC0103800D001606B
S315100448300149C16030BC70473C91041080B500201A
S3151004484000F001F802BD10B52F4C2078C0070ED425
S31510044850200000F079F8002809D02A4860602B4A15
S315100448602B49201DFFF707F9200000F07AF8201DC8
S3151004487010BD10B5040001F080FC200010BD00002E
S315100448807CB504000E001500207900280ED000BF58
S3151004489029A003C86A4603C23000FFF705F9009041
S315100448A069462800EA6890470A2076BD1EA0FFF7DD
S315100448B033FC0120207100BF21A003C86A4603C23D
S315100448C03000FFF7F1F8009069462800EA6890472F
S315100448D0002076BD704710B50E4C2078C0070ED454
S315100448E0200000F031F8002809D00B4801F046FCEE
S315100448F0064A0A49FFF7BFF8200000F032F80648C6
S3151004490010BD0000CC8D0410BC2500201C260020F0
S315100449107348041004260020F8200020B98C0410D3
S3151004492080B501F05DFC02BD535441434B20494E02
S315100449304954202F6E2F7200000000000A00000058
S31510044940000000000000000010B50400FCF776FF1C
S315100449502078C00703D5FCF780FF002010BD012086
S3151004496010BD80B5016801220A430260FCF775FF89
S3151004497001BDFEE7B0B4020010792B4B010004D13F
S31510044980186811688843186007E0062805D10020C6
S315100449901071186811680143196000250024106805
S315100449A0E040C0071BD5082C08DA996A0F20A840E6
S315100449B081431079A8400843986210E02000083813
S315100449C008280CD229002039D86A0F278F40B843FB
S315100449D01779BC460F006146B9400143D962641C7D
S315100449E02D1D1A2CDBDB106851790129996802D127
S315100449F00843986001E08143996010689179012910
S31510044A00596802D10843586001E081435960B0BC2B
S31510044A1070478021C9050BE0044A012901D11060B1
S31510044A207047506070470000040000403C0000408E
S31510044A3009680840401E8041C043C00F7047FEE716
S31510044A40044A0129116802D1084310607047814352
S31510044A501160704720009040010001200907090FDA
S31510044A608840704710B5364C201D01F003FC2168B0
S31510044A7008182060201D01F02DFC10BDF0B585B07E
S31510044A80304C2000383000902D4F007A00284DD13C
S31510044A90381D01F0C3FB200001F02EFC2A482060CB
S31510044AA000212000283001F053FC012600990E70D5
S31510044AB000253D60381D01F0C6FB244901A801F00C
S31510044AC047FCFFF715FD606B002800D00125009800
S31510044AD0007801214140294301D101F0BCF920009D
S31510044AE0283001A9884211D0606B002804D0200018
S31510044AF02830616B89688847049A002A04D001A972
S31510044B00200028305268904704986063FA22920471
S31510044B100023200001F034FCFFF7A2FD04990029BC
S31510044B2002D001A889688847009806723C68381D27
S31510044B3001F0A0FB39688C42F8D1201805B0F0BDFD
S31510044B4080250020BC230020EC8F0410654A041035
S31510044B5000207047704780B5FFF7CAFC01BD80B5C9
S31510044B60FFF77EFD01BD30B585B00400684600210F
S31510044B700022002300252EC0201D02901020039031
S31510044B80684601F093FD2060002802D10020C0433E
S31510044B9000E0002005B030BD80B5006801F02AFEA3
S31510044BA001BD80B50121006801F0AAFD01BD80B5E3
S31510044BB0002901D50021C9430B00002201210068F8
S31510044BC001F0D6FD012800D0002002BDF1B5A4B035
S31510044BD00E0014001D004A487844FF30253003C8DF
S31510044BE022AA03C2049600200D9001E0009824180E
S31510044BF000206946C88022AB0022D243210001A8B6
S31510044C00801C01F01BFE0090012805DA2078411E55
S31510044C108941C943C90F00916846C0882528009F59
S31510044C2000D17F1E012F0EDB260031780498249ABA
S31510044C3090470490002800D101E10D98401C0D9076
S31510044C40761C7F1EF1D16846C088252807D100201E
S31510044C500790089009900A900B900C9008E068460B
S31510044C60C0880028C2D10D98EBE00100012008434A
S31510044C70641C21782029F8D023290ED02B2904D09E
S31510044C802D2907D030290BD00DE00100022008434E
S31510044C9080B2EDE701000420F9E701000820F6E7E9
S31510044CA001001020F3E72A290FD1296829600A6820
S31510044CB0091D29600F92002A05D551420F91010052
S31510044CC00420084380B2641C12E000210F910AE00C
S31510044CD00F9A7C4B9A4205D093009A185200511899
S31510044CE030390F91641C21780A00303A0A2AEFD31E
S31510044CF021782E2906D00021C9430E9121E000BF48
S31510044D0090420000641C21782A2907D12968296059
S31510044D100A68091D29600E92641C12E000210E9186
S31510044D200AE00E9A674B9A4205D093009A185200DD
S31510044D30511830390E91641C21780A00303A0A2A27
S31510044D40EFD302A9088726783100044878440C303A
S31510044D5001F082FD002803D0641C02E03C420000EE
S31510044D60002602A83A214654405C682804D12178CA
S31510044D70682901D1622005E06C2807D120786C28B7
S31510044D8004D1712002A93A228854641C12A80690F0
S31510044D902678641C3000253824D02038022800D800
S31510044DA0D9E0133800D1FCE00B3800D168E1401E7D
S31510044DB000D140E1401E022800D8CCE0001F00D1EB
S31510044DC039E1401F00D197E0401E00D1E9E0401EB2
S31510044DD039D0C01E0BD0801E00D1E2E0C01E00D117
S31510044DE0DFE070E1252012A90870012075E102A800
S31510044DF03A21405C6C282868286016D00668001D85
S31510044E00286005960E9F002F03D5300001F02EFD65
S31510044E1009E03A000021300001F030FD002801D0ED
S31510044E20801B00E03800089058E10268001D2860D5
S31510044E3002A9249800F032FA002800D44EE100208A
S31510044E40C04325B0F0BD286828600268001D28609C
S31510044E500020C0430021104002AA03C212A80590E4
S31510044E60069B3C2602A803C8002904D1002802D1B7
S31510044E700E9A002A14D0761E00960207120F3032AC
S31510044E80D2B23A2A00DB27329A5500090A07104390
S31510044E90090901D1002803D0059A9F19BA42EAD309
S31510044EA03C20801B0890991905910E9988420DDAB9
S31510044EB0081A0A9002A8008F0349014002A8018724
S31510044EC00CE100BFFFFFFF7FEFFF0000002900D4B5
S31510044ED004E102A93822895C14220A40102A00D05F
S31510044EE0FCE00F99079A891A0A9A891A0E1A012E42
S31510044EF000DAF3E00A96F1E002A83A21405C62284F
S31510044F0019D0682806D06A280CD06C281BD07128B2
S31510044F1008D018E0286828600168001D28600D98DC
S31510044F200880DBE0286828600268001D28600D9858
S31510044F30C11703C2D2E0286828600168001D2860E2
S31510044F400D980870CAE0286828600168001D28605A
S31510044F500D980860C2E02A68D21D072082432A6091
S31510044F6003CA2A6002AA03C2002902D507982D2172
S31510044F700AE002A8008F810702D507982B2103E0C7
S31510044F80C00705D50798202112AA1154401C079072
S31510044F9012A8079940180590310002A800F0C6FB24
S31510044FA09CE002A83A21405C6C280BD0712801D0F1
S31510044FB06A2807D12A68D21D072082432A6003CAA9
S31510044FC02A6005E0296829600868091D29600021FE
S31510044FD002AA03C202A83A21405C682803D102A897
S31510044FE003C880B20BE0622803D102A803C8C0B27A
S31510044FF005E0742801D07A2804D102A803C8002138
S3151004500002AA03C202A83821405C00072FD502A8C1
S3151004501003C8002901D1002829D02020304378283C
S3151004502025D10798302112AA1154401C411C07910E
S3151004503012A90E541BE0290002A83A22805C00F043
S31510045040F8F802AA03C202A8002902DA07982D2149
S3151004505009E0008F810702D507982B2103E0C007CA
S3151004506005D50798202112AA1154401C079012A89E
S31510045070079940180590310002A800F0A1FA2DE016
S3151004508002A83A21405C6C2809D0012007902868B0
S3151004509028600168001D286012A801701EE02868A7
S315100450A028600168001D2860684601800020694652
S315100450B04880C0430E906A4602A9249800F0EEF880
S315100450C000280BD5BBE6252012A9087001200790ED
S315100450D0300003D012A84670022007900F98079943
S315100450E0401A0A99401A0899401A0B99401A0999B4
S315100450F0401A0C99401A009002A83821405C4007C7
S3151004510011D4202069460871009801280BDB009EF3
S31510045110012301AA02A9249800F0AFFD002800D0AB
S315100451208DE6761EF4D1079F12AE002F0DD031787E
S315100451300498249A90470490002800D17FE60D988D
S31510045140401C0D90761C7F1EF1D1302069460871E3
S315100451500A9E012E0ADB012301AA02A9249800F053
S315100451608CFD002800D06AE6761EF4D1059E089FB1
S31510045170002F0DD031780498249A90470490002873
S3151004518000D15CE60D98401C0D90761C7F1EF1D163
S315100451903020694608710B9E012E0ADB012301AAF1
S315100451A002A9249800F069FD002800D047E6761E6F
S315100451B0F4D1059808994618099F002F0DD0317817
S315100451C00498249A90470490002800D137E60D9845
S315100451D0401C0D90761C7F1EF1D130206946087153
S315100451E00C9E012E0ADB012301AA02A9249800F0C1
S315100451F044FD002800D022E6761EF4D102A83821F8
S31510045200405C400700D4F3E42020694608710098F6
S31510045210012800DAECE4009E012301AA02A92498CD
S3151004522000F02BFD002800D009E6761E00D1DFE43D
S31510045230F2E70A00622822D0682819D06A2808D012
S315100452406C2823D0712804D074281FD07A2808D04B
S315100452501CE01368DB1D07208343136003CB136024
S315100452607047116811600868091D116000217047A4
S31510045270116811600868091D116000B20BE011680D
S3151004528011600868091D116040B204E011681160CC
S315100452900868091D1160C11770470000F4B59AB06B
S315100452A007000C00206B002800D50E48039001F06F
S315100452B0F1FA616B0818069009487844223003C83D
S315100452C007AA03C23820205C400702D40698412856
S315100452D00AD209A80290402006900020059012E0F8
S315100452E0C03C0000FFFFFF7FFBF7DEFD02900028A5
S315100452F0F3D10020C04361E11A98801C1A900398D8
S315100453000199401A03900398012800DAD0E007AAFD
S315100453101A98018800A8401C01F0C1FA01900028CF
S3151004532000D5E2E01A980088002804D10198401E9E
S31510045330019000D5D9E003980199884200DAB7E0C4
S3151004534060690699019A8218914200D39FE0002160
S3151004535061634142206A081AA169401A616A401AB7
S31510045360E169401AA16A401A04903820205C40076B
S3151004537011D4202069460870049801280BDB049D7B
S3151004538001236A462100380000F077FC002800D07B
S31510045390ABE06D1EF4D16669029D002E0CD02978FF
S315100453A0A068B847A060002800D19EE0E06A401CBF
S315100453B0E0626D1C761EF2D1302069460870256AAB
S315100453C0012D0ADB01236A462100380000F055FC42
S315100453D0002800D089E06D1EF4D1E568A669002E78
S315100453E00BD02978A068B847A06000287DD0E06A61
S315100453F0401CE0626D1C761EF3D13020694608709D
S31510045400656A012D09DB01236A462100380000F084
S3151004541034FC002869D16D1EF5D1E068A1694518E0
S31510045420E669002E0BD02978A068B847A06000283A
S315100454305BD0E06A401CE0626D1C761EF3D130200E
S3151004544069460870A56A012D09DB01236A46210005
S31510045450380000F012FC002847D16D1EF5D1382013
S31510045460205C400710D5202069460870049801284E
S315100454700ADB049D01236A462100380000F0FDFB77
S31510045480002832D16D1EF5D1002005906061019A75
S3151004549000A9491C02986369C018FCF797F960695A
S315100454A00199401860611A980088002800D023E7F3
S315100454B0059800287BD1606B6169401A216A401AED
S315100454C0A169401A616A401AE169401AA16A461A2A
S315100454D03820205C400711D4012E0FDB3500202123
S315100454E0A068B847A060002803D10020C0430590E7
S315100454F05DE0E06A401CE0626D1EF0D16369029AB9
S315100455002100380000F0B9FB0028EED1256A012DE0
